:060000000A128A11122809
:10000800FE00030E83120313C2000408C3000A088B
:10001800C4007F08C5000A128A113C280A128A11F6
:1000280015280A128A15F6270A128A11D6000A120A
:100038008A15F7270A128A11D7000A128A15F82793
:100048000A128A11D8000A128A15F927D9008316CC
:100058000313C801C901CA01CB01CC01CD01831228
:100068000313DA01DB01DC0183010A128A11262A53
:100078008B1C1B2A5C080319502833308312031386
:10008800C000BB30BF00DF30BE00BE0B4928BF0B2D
:100098004928C00B4928EA28831203135C08031D6A
:1000A800EA280230F7000030F8005708FA0056082E
:1000B800F9000A128A11B0260A128A1178088312E6
:1000C8000313CF007708CE00E830F2000330F300C6
:1000D8004F08F1004E08F0000A128A11B5270A12DB
:1000E8008A117108F9007008F8000A128A11D627D7
:1000F8000A128A11780883120313A3007908A4004E
:100108007A08A5000030A000FA30A1004430A2000F
:100118000A128A1154240A128A118312031320081E
:10012800B0002108B1002208B2000A128A11B625CF
:100138000A128A11831203133008BE003108BF0067
:100148003208C0003308C100E830F2000330F30081
:10015800831203134F08F1004E08F0000A128A11A7
:10016800B5270A128A117108F9007008F8000A12F6
:100178008A11D6270A128A11780883120313A3005A
:100188007908A4007A08A5000030A000FA30A10080
:100198004430A2000A128A1154240A128A118312C6
:1001A80003132008B0002108B1002208B2000A1287
:1001B8008A11B6250A128A11831203133008BE0069
:1001C8003108BF003208C0003308C100831203138E
:1001D80006150530D4000030D500D51B2629550852
:1001E800F1005408F0000A128A1156270A128A11DF
:1001F8008312031388003F3087000B3083120313E8
:10020800C0002630BF005D30BE00BE0B0929BF0B01
:100218000929C00B09290330831203135406550416
:10022800031D18298613061754035504031D1E2998
:1002380006138616FF30D4070318D50AFF30D507F2
:10024800D51FF328870188010B3083120313C000E0
:100258002630BF005D30BE00BE0B3029BF0B3029F1
:10026800C00B30298312031306115908D10058080E
:10027800D0006430F7000030F8005108FA00500848
:10028800F9000A128A11B0260A128A117808831214
:100298000313C7007708C6000A30F7000030F800DB
:1002A8005108F3005008F2006430F0000030F1000B
:1002B8000A128A110B270A128A117108FA007008AB
:1002C800F9000A128A11B0260A128A1178088312D4
:1002D8000313C9007708C8005108F3005008F2005A
:1002E8006430F0000030F1000A128A110B270A125C
:1002F8008A11710883120313CD007008CC000A30EC
:10030800F0000030F1004D08F3004C08F2000A122A
:100318008A110B270A128A11710883120313CB0062
:100328007008CA004708803AFF0080307F02031D2A
:100338009F2901304602031CA7296F30831203133B
:1003480087006F30C029831203134908F100480859
:10035800F0000A128A1156270A128A11831203130F
:1003680087004B08F1004A08F0000A128A11562744
:100378000A128A118312031388000B3083120313A5
:10038800C0002630BF005D30BE00BE0BC929BF0BC0
:10039800C929C00BC929FF3083120313D0070318DA
:1003A800D10AFF30D107D11F3D29061587018801E1
:1003B800D201D3015308803AFF0080307F02031D29
:1003C800E729053052020318172A0B30831203134A
:1003D800C0002630BF005D30BE00BE0BF129BF0B48
:1003E800F129C00BF129023083120313520653047A
:1003F80003190617043052065304031D062A8612F1
:10040800061386170130D2070318D30A0030D30722
:100418005308803AFF0080307F02031D152A0530FB
:100428005202031CE92983120313DC018B104508CF
:10043800FF0044088A0043088400420E8300FE0E31
:100448007E0E0900003083160313B2000030B1009D
:100458002530B0008030AF000A128A116F230A12CB
:100468008A118316031387018801831203138701F6
:100478008801831603130614061183120313061545
:100488008316031386120613861383120313861228
:100498000613861383160313C401C5014508803A61
:1004A800FF0080307F02031D5B2A053044020318D9
:1004B800882A831203130617063083160313C30012
:1004C8001330C200AD30C100C10B682AC20B682AC4
:1004D800C30B682A8312031306130630831603130B
:1004E800C3001330C200AD30C100C10B792AC20B62
:1004F800792AC30B792A013083160313C40703181A
:10050800C50A0030C507522A8312031386170B3019
:1005180083160313C3002630C2005D30C100C10B2F
:10052800932AC20B932AC30B932A8B170B170B160C
:1005380083160313C601C701831286120613861792
:10054800023083160313C3000430C200B930C1005F
:10055800C10BAC2AC20BAC2AC30BAC2AB32A0A12B1
:100568008A15FA270A128A11003A0319F22A0A127E
:100578008A11F7270A128A11613A031DD72A8316AE
:100588000313C601C60A023083160313C3000430DE
:10059800C200B930C100C10BCF2AC20BCF2AC30B8E
:1005A800CF2AD62AF22A0A128A11F7270A128A11A2
:1005B800773A031DF22A83160313C701C70A0230CC
:1005C80083160313C3000430C200B930C100C10B45
:1005D800EB2AC20BEB2AC30BEB2AF22A0B30831649
:1005E8000313C3002630C2005D30C100C10BFA2AD4
:1005F800C20BFA2AC30BFA2A0A128A15FA270A1218
:100608008A11003A0319572B831603134603031D57
:10061800302B0330A0000030A100CB300A128A1121
:1006280091270A128A119B3083120313D8000030D5
:10063800D90083160313C601023083160313C300BF
:100648000430C200B930C100C10B282BC20B282BC3
:10065800C30B282B2F2B572B831603134703031D7C
:10066800572B0330A0000030A100C8300A128A11AD
:1006780091270A128A11983083120313D60000308A
:10068800D70083160313C701023083160313C30070
:100698000430C200B930C100C10B502BC20B502B23
:1006A800C30B502B572B831203135C08031DA02A7E
:1006B800333083160313C300BB30C200DF30C100E0
:1006C800C10B642BC20B642BC30B642B8312031363
:1006D800DC01DC0AA02A831603132F08B3003008B4
:1006E800B4003108B5003208B60006300310B30D67
:1006F800B40DB50DB60DFF3E031D7A2B3608A300C9
:100708003508A2003408A1003308A0000030B70063
:100718001230B8007A30B9000030BA002F08BB0098
:100728003008BC003108BD003208BE000630031096
:10073800BB0DBC0DBD0DBE0DFF3E031D9B2BBB09A4
:10074800BC09BD09BE09BB0A0319BC0A0319BD0AC5
:100758000319BE0A3B08B7073C0803183C0FB52B22
:10076800B62BB8073D0803183D0FBB2BBC2BB907A8
:100778003E0803183E0ABA073A08A7003908A60037
:100788003808A5003708A4000A128A1127250A127A
:100798008A11831603132108C0002008BF00013006
:1007A8004002003003193F02031C3D2C2F08B30000
:1007B8003008B4003108B5003208B6000430031020
:1007C800B30DB40DB50DB60DFF3E031DE32B360872
:1007D800A3003508A2003408A1003308A0000030A7
:1007E800B7001230B8007A30B9000030BA002F08CC
:1007F800BB003008BC003108BD003208BE00043020
:100808000310BB0DBC0DBD0DBE0DFF3E031D042C1A
:10081800BB09BC09BD09BE09BB0A0319BC0A0319F7
:10082800BD0A0319BE0A3B08B7073C0803183C0F6A
:100838001E2C1F2CB8073D0803183D0F242C252C0F
:10084800B9073E0803183E0ABA073A08A70039084C
:10085800A6003808A5003708A4000A128A1127251F
:100868000A128A11831603132108C0002008BF004A
:10087800181501304002003003193F020318080020
:100888003F0899001812831203139817831603134D
:100898008717831203131816831603139816080074
:1008A800831203132008A6002108A7002208A80025
:1008B8000310270D280DA9002908AA002A08031DDE
:1008C8006C2C0030A0000030A1000030A20008000D
:1008D8002308A6002408A7002508A8000310270D50
:1008E800280DA9002908AF002F08031D822C00300D
:1008F800A0000030A1000030A20008002F087B3EB5
:10090800A6002608AA072008A6002108A700220892
:10091800A80010300310A80CA70CA60CFF3E031D5E
:100928008E2C2608A9002908AF002308A600240851
:10093800A7002508A80010300310A80CA70CA60CC7
:10094800FF3E031DA02C2608A9002908AF06803009
:10095800A6002608AF05A117A417FF30A305FF308E
:10096800A4050030A5050030AB000030AC00003015
:10097800AD000730A6002608AE00201CD12C2308A5
:10098800AB07240803110318240A031DAC07250824
:1009980003110318250A031DAD0701300310A20C2B
:1009A800A10CA00CFF3E031DD22C01300310A30D97
:1009B800A40DA50DFF3E031DDA2C0130AE02031D68
:1009C800C12C0930A6002608AE00201CF92C2308EB
:1009D800AB07240803110318240A031DAC072508D4
:1009E80003110318250A031DAD0701300310A20CDB
:1009F800A10CA00CFF3E031DFA2C01300310AD0C16
:100A0800AC0CAB0CFF3E031D022D0130AE02031DE2
:100A1800E92C2B08F0002C08F1002D08F2002A0818
:100A2800A6002608F3002F08A7002708F4000A12DA
:100A38008A114426700883120313A0007108A100CC
:100A48007208A200080083160313AA01A31F392DF8
:100A5800A009A109A209A309A00A0319A10A031957
:100A6800A20A0319A30AAA01AA0AA71F4A2DA409C0
:100A7800A509A609A709A40A0319A50A0319A60A1C
:100A88000319A70A0130A8002808AA060030AE00FA
:100A98000030AD000030AC000030AB002308220469
:100AA8002104200403199F2DA901A90AA31B6A2D5B
:100AB8000130A8000310A00DA10DA20DA30DA80BD5
:100AC8005E2D0130A8002808A9075A2D0130A8007A
:100AD8000310AB0DAC0DAD0DAE0DA80B6C2D23089E
:100AE8002702031D812D22082602031D812D2108BE
:100AF8002502031D812D20082402031C922D2008A5
:100B0800A4022108031C210FA5022208031C220F9E
:100B1800A6022308031C230FA7022B14013003107D
:100B2800A30CA20CA10CA00CFF3E031D932D0130B9
:100B3800A902031D6A2D2A080319AD2DAB09AC09BA
:100B4800AD09AE09AB0A0319AC0A0319AD0A0319BA
:100B5800AE0A2E08A3002D08A2002C08A1002B081D
:100B6800A0000800831203133008B4003108B50050
:100B78003208B6000310350D360DB7003708BD0032
:100B88003D08031DD02D0030B3000030B200003006
:100B9800B1000030B00008003008B4003108B500DA
:100BA8003208B60017300310B60CB50CB40CFF3E73
:100BB800031DD72D3408B7003708B800B117FF3028
:100BC800B005FF30B1050030B2053008B900310872
:100BD800BA003208BB00BC018E30BD02BD1F122E08
:100BE8003D08803A8F3E0318022E0030B3000030D3
:100BF800B2000030B1000030B0000800013003102E
:100C0800BC0CBB0CBA0CB90CFF3E031D032E013003
:100C1800B4003408BD0703192D2E022E18303D02EA
:100C2800031C2A2E0030B3000030B2000030B1009F
:100C38000030B00008000130B4000310B90DBA0D3F
:100C4800BB0DBC0DB40B212E0130BD023D08031DA8
:100C58001F2E380803193B2EB909BA09BB09BC096C
:100C6800B90A0319BA0A0319BB0A0319BC0A3C08D2
:100C7800B3003B08B2003A08B1003908B0000800D8
:100C8800730803194C2E720871047004031D5F2E3B
:100C98000030F0000030F1000030F20008000130B0
:100CA800F5007508F30701300310F20CF10CF00C95
:100CB800FF3E031D582EFE30720503197A2E532E5F
:100CC8000130F5007508F3070130F007003003180C
:100CD8000130F107003003180130F207013003102A
:100CE800F20CF10CF00CFF3E031D732EFF30720561
:100CF8000319892E642E0130F30201300310F00D20
:100D0800F10DF20DFF3E031D822EF11B8F2E0230D6
:100D1800730203187F2E7318972EFF30F0057F306B
:100D2800F105FF30F2050310F30C7308F500F60126
:100D3800F70110300310F50DF60DF70DFF3E031DFA
:100D48009E2E7508F0047608F1047708F2047408FA
:100D580003190800F217080083120313A101F81FF2
:100D6800BC2EF709F809F70A0319F80AA101A10A24
:100D7800FA1FC72EF909FA09F90A0319FA0A013004
:100D8800FB007B08A106A201A301770878040319D8
:100D9800FE2EA001A00AF81BDD2E01300310F70D6E
:100DA800F80DFF3E031DD22E0130FB007B08A00783
:100DB800CF2E01300310A20DA30DFF3E031DDE2E22
:100DC80078087A02031DEA2E77087902031CF32EAD
:100DD8007708F9027808031CFA03FA022214013092
:100DE8000310F80CF70CFF3E031DF42E0130A0028F
:100DF800031DDD2E21080319062FA209A309A20A43
:100E08000319A30A2308F8002208F7000800F601CE
:100E1800F31F152FF209F309F20A0319F30AF60171
:100E2800F60AF11F1C2FF009F109F00A0319F10A5B
:100E3800700871040319492FF501F50AF11B302FC9
:100E480001300310F00DF10DFF3E031D252F013079
:100E5800F4007408F507222F71087302031D362F5A
:100E680070087202031C3E2F7008F2027108031CFE
:100E7800F303F30201300310F10CF00CFF3E031DE5
:100E88003F2F0130F502031D302F76080319512F2B
:100E9800F209F309F20A0319F30A7308F100720858
:100EA800F00008006B2F3F300800063008005B3068
:100EB80008004F300800663008006D3008007D30AB
:100EC8000800073008007F3008006F3008007108FC
:100ED800003A0319702F902F7008003A0319572F02
:100EE800013A0319592F033A03195B2F013A0319E1
:100EF8005D2F073A03195F2F013A0319612F033A4F
:100F08000319632F013A0319652F0F3A0319672F45
:100F1800013A0319692F902F080083160313A400C0
:100F2800A501A60121082602031D9C2F20082502E1
:100F3800031808000A128A11F7270A128A11831661
:100F48000313A20025082407A3002308840022080D
:100F5800831380000130A5070318A60A0030A607EE
:100F6800962FF401F501701CBF2F7208F4070318BF
:100F7800F50A7308F50701300310F20DF30DFF3E73
:100F8800031DC02F01300310F10CF00CFF3E031DB0
:100F9800C72F70087104031DB72F7508F100740876
:100FA800F0000800FD01F91FE02FF809F909F80A17
:100FB8000319F90AFD01FD0A7808F0007908F10023
:100FC800F2018E30FB007B08F3007D08FC007C08F2
:100FD800F4000A128A1144267008F8007108F90012
:100FE8007208FA000800831203138C1EF72F1A08E0
:020FF8000800EF
:101FEC000A340034143400340030831203138C1A76
:041FFC0001300800A8
:02400E00723FFF
:00000001FF
