:100000000A128A11E62FFF1B0D2883137F1883170E
:100010000008840A0319FF0A080000308A00040857
:10002000840A82070034413463347434693476348A
:1000300065342034743469346D3465342834533471
:10004000653463342934003441346334743469349E
:10005000763465342034743469346D346534203436
:100060002D342034313400345734613469347434DD
:100070002034543469346D346534203420342034D1
:100080002D342034323400345734613469347434BC
:100090002034743469346D34653428345334653411
:1000A0006334293400344D3465346E34753420346F
:1000B00066346F3472342034733465347434753478
:1000C000703400345234433454344C342034533478
:1000D00079347334743465346D3400345534703489
:1000E000643461347434653464342034213400342D
:1001C2000A34003414340034F00083160313981CEC
:1001D200E6287008831203139900080000300A12FF
:1001E2008A1114210A128A1101300A128A11142169
:1001F2000800F000701C0129831203130816042959
:10020200831203130812F01C082988160929881280
:10021200701D0D2908170E290813F01D12298817C1
:10022200080088130800F3008312031308117308EF
:100232000A128A11FA200A128A11831203138815EC
:100242000B30F2006230F100F10B2529F20B252967
:1002520000008312031388110800F400F201F30175
:1002620072087407F10071088400831300080319EF
:10027200080072087407F1007108840083130008F3
:100282000A128A11E5200A128A110130F2070318B4
:10029200F30A0030F307312983120313A001A101ED
:1002A20020087907FC007A08FB000318FB0AA01B50
:1002B200FB037B08FD007D0883120313FF007C080B
:1002C20084000A128A1103200A128A11003A0319C1
:1002D200080020087907FC007A08FB000318FB0AD3
:1002E200A01BFB037B08FD007D0883120313FF00A4
:1002F2007C0884000A128A1103200A128A110A1247
:100302008A117C220A128A11013083120313A00778
:100312000318A10A0030A1075129F7007703031D32
:10032200B32974087F3EF5007508FA007A08F500D3
:1003320004300310F50CFF3E031D9A297508F600E0
:100342007608F8007A080F39F5007508F900780880
:100352000A128A1114210A128A1179080A128A11C0
:100362001421080002307706031D08007408BF3EFE
:10037200F5007508FA007A08F50004300310F50C50
:10038200FF3E031DBF297508F6007608F8007A08BB
:100392000F39F5007508F90078080A128A1114213C
:1003A2000A128A1179080A128A1114210800F60128
:1003B200F31FE229F209F309F20A0319F30AF6011B
:1003C200F60AF11FE929F009F109F00A0319F10A05
:1003D200700871040319162AF501F50AF11BFD29AB
:1003E20001300310F00DF10DFF3E031DF229013023
:1003F200F4007408F507EF2971087302031D032A3C
:1004020070087202031C0B2A7008F2027108031CA6
:10041200F303F30201300310F10CF00CFF3E031D55
:100422000C2A0130F502031DFD29760803191E2A44
:10043200F209F309F20A0319F30A7308F1007208C8
:10044200F0000800F601F11F2D2AF009F109F00A67
:100452000319F10AF601F60AF31F382AF209F30921
:10046200F20A0319F30A0130F4007408F606F701E0
:10047200F8017008710403196F2AF501F50AF11BDE
:100482004E2A01300310F00DF10DFF3E031D432AE9
:100492000130F4007408F507402A01300310F70D0B
:1004A200F80DFF3E031D4F2A71087302031D5B2ADC
:1004B20070087202031C642A7008F2027108031C9D
:1004C200F303F302771401300310F10CF00CFF3E3A
:1004D200031D652A0130F502031D4E2A7608031911
:1004E200772AF709F809F70A0319F80A7808F100D8
:1004F2007708F0000800F40074080F39F100710861
:10050200F2007408F039F1007108F300831203134A
:1005120008157308F10004300310F10CFF3E031DAF
:100522008D2A71080A128A11FA200A128A1183127C
:10053200031388153330F5008230F6007608803ACE
:10054200FF0080307F02031DA82A013075020318C4
:10055200BC2A0000FF30F5070318F60AFF30F60741
:100562007608803AFF0080307F02031DBA2A0130EC
:100572007502031CAA2A83120313881172080A1235
:100582008A11FA200A128A11831203138815333052
:10059200F7008230F8007808803AFF0080307F024E
:1005A200031DD52A013077020318E92A0000FF3023
:1005B200F7070318F80AFF30F8077808803AFF00B7
:1005C20080307F02031DE72A01307702031CD72AFD
:1005D200831203138811080000300A128A11FA20CC
:1005E2000A128A111C30F6004130F7007708803A6F
:1005F200FF0080307F02031D002B013076020318BA
:10060200142B0000FF30F6070318F70AFF30F70734
:100612007708803AFF0080307F02031D122B0130E1
:100622007602031C022B03300A128A1114210A12C9
:100632008A110D30F500FB30F400F40B1E2BF50B84
:100642001E2B232B03300A128A1114210A128A113B
:100652001D30F5009130F400F40B2D2BF50B2D2BF2
:1006620003300A128A1114210A128A1102300A1264
:100672008A1114210A128A1102300A128A111421D3
:100682000A128A1108300A128A1114210A128A11D6
:1006920000300A128A1114210A128A110C300A122D
:1006A2008A1114210A128A1100300A128A111421A5
:1006B2000A128A1106300A128A11142108008312C2
:1006C2000313A101F31F722BF009F109F209F309D7
:1006D200F00A0319F10A0319F20A0319F30AA10134
:1006E200A10AF71F832BF409F509F609F709F40AA1
:1006F2000319F50A0319F60A0319F70A0130F8007B
:100702007808A1060030A5000030A4000030A30044
:100712000030A20073087204710470040319D82B0C
:10072200A001A00AF31BA32B0130F8000310F00D67
:10073200F10DF20DF30DF80B972B0130F80078084C
:10074200A007932B0130F8000310A20DA30DA40DF6
:10075200A50DF80BA52B73087702031DBA2B72089F
:100762007602031DBA2B71087502031DBA2B70089D
:100772007402031CCB2B7008F4027108031C710F66
:10078200F5027208031C720FF6027308031C730F42
:10079200F702221401300310F30CF20CF10CF00CEE
:1007A200FF3E031DCC2B0130A002031DA32B210809
:1007B2000319E62BA209A309A409A509A20A031990
:1007C200A30A0319A40A0319A50A2508F300240899
:1007D200F2002308F1002208F0000800831203133C
:1007E2002608AA002708AB002808AC002908AD009B
:1007F20006300310AA0DAB0DAC0DAD0DFF3E031D6F
:10080200FA2B2D08F3002C08F2002B08F1002A081D
:10081200F0000030AE001230AF007A30B00000308D
:10082200B1002608B2002708B3002808B40029083E
:10083200B50006300310B20DB30DB40DB50DFF3E79
:10084200031D1B2CB209B309B409B509B20A031975
:10085200B30A0319B40A0319B50A3208AE073308FA
:100862000318330F352C362CAF0734080318340F16
:100872003B2C3C2CB00735080318350AB107310868
:10088200F7003008F6002F08F5002E08F4000A12CF
:100892008A1160230A128A117108FA007008F9009D
:1008A20001307A02003003197902031CBD2C831235
:1008B20003132608AA002708AB002808AC00290861
:1008C200AD0004300310AA0DAB0DAC0DAD0DFF3E13
:1008D200031D632C2D08F3002C08F2002B08F100F5
:1008E2002A08F0000030AE001230AF007A30B000BB
:1008F2000030B1002608B2002708B3002808B4006F
:100902002908B50004300310B20DB30DB40DB50DB6
:10091200FF3E031D842CB209B309B409B509B20A1A
:100922000319B30A0319B40A0319B50A3208AE0748
:1009320033080318330F9E2C9F2CAF07340803187B
:10094200340FA42CA52CB00735080318350AB107BB
:100952003108F7003008F6002F08F5002E08F400E1
:100962000A128A1160230A128A117108FA007008A9
:10097200F90083160313181501307A0200300319A7
:1009820079020318080079088316031399001812D4
:1009920083120313981783160313871707178312FB
:1009A20003131816831603139816080000308312D7
:1009B2000313A9000030A8002530A7008030A6004C
:1009C2000A128A11EF230A128A118316031388016D
:1009D20006148614061586150616861606170A12BA
:1009E2008A11ED220A128A110A128A11EF200A12C2
:1009F2008A11043083120313B6003608F400013062
:100A02000A128A118E210A128A115030F90080309E
:100A1200FA000A128A114D210A128A110230831237
:100A22000313B6003608F40002300A128A118E212E
:100A32000A128A114130F9008030FA000A128A1132
:100A42004D210A128A11033083120313B8000830B1
:100A5200B7007630B600B60B2C2DB70B2C2DB80B89
:100A62002C2D0000823083120313B700DD30B60054
:100A7200B60B392DB70B392D83120313061C332DF8
:100A82000A128A11EF200A128A11F401F40A0130C3
:100A92000A128A118E210A128A111230F90080304C
:100AA200FA000A128A114D210A128A11F401F40A7B
:100AB20002300A128A118E210A128A112230F9009A
:100AC2008030FA000A128A114D210A128A11831209
:100AD2000313BF01C001C101C201752DBF01BF0ACD
:100AE200892DC001C00A892D823083120313B700F9
:100AF200DD30B600B60B7B2DB70B7B2D83120313B3
:100B020086186F2D0619722D061F752DC101C10A97
:100B12003F03031DB32E4A08C4004908C3000A124A
:100B22008A11EF200A128A11F401F40A01300A1222
:100B32008A118E210A128A110130F9008030FA00DE
:100B42000A128A114D210A128A110D3083120313DF
:100B5200B6003608F40002300A128A118E210A12F7
:100B62008A11823083120313B700DD30B600B60B50
:100B7200B82DB70BB82D6430F0000030F1008312AD
:100B820003134408F3004308F2000A128A112322D5
:100B92000A128A117008303E83120313B600360817
:100BA200B9000A30F0000030F1004408F3004308B5
:100BB200F2000A128A1123220A128A117008303EA8
:100BC20083120313B6003608BA000A30F000003070
:100BD200F1004408F3004308F2000A128A11D821F6
:100BE2000A128A117008303E83120313B6003608C7
:100BF200BB000D30B6003608F40002300A128A112A
:100C02008E210A128A113930F9000030FA000A12D4
:100C12008A114D210A128A11922E4408803AFF004D
:100C220080307F02031D172E323043020318AC2E90
:100C3200831203134308013EC30044080318013E14
:100C4200003E372E4408803AFF0080307F02031DA9
:100C52002C2E15304302031CAC2E831203134308BF
:100C6200FF3EC30044080318013EFF3EC400AC2E01
:100C72004408CA004308C900C201C20A0A128A1102
:100C8200EF200A128A11053083120313B6003608C8
:100C9200F40001300A128A118E210A128A115C3084
:100CA200F9008030FA000A128A114D210A128A11C3
:100CB200103083120313B8003930B7000D30B6007C
:100CC200B60B612EB70B612EB80B612E61300A1282
:100CD2008A11E5200A128A11023083120313B80026
:100CE2000430B700B930B600B60B752EB70B752EAF
:100CF200B80B752E7C2E39300A128A112E210A1257
:100D02008A11023083120313B8000430B700B930DD
:100D1200B600B60B8A2EB70B8A2EB80B8A2E912EEE
:100D2200AC2E043083120313B8000C30B7003330FA
:100D3200B600B60B9A2EB70B9A2EB80B9A2E8312C8
:100D4200031386190E2E061A232E861A392E061F13
:100D5200922EC201C20A831203134203031DB22D53
:100D6200BF01DC2F4003031DDC2F4808C6004708E3
:100D7200C5000A128A11EF200A128A11F401F40A3C
:100D820001300A128A118E210A128A113230F900B8
:100D92008030FA000A128A114D210A128A110D308E
:100DA20083120313B6003608F40002300A128A11C5
:100DB2008E210A128A11823083120313B700DD30AA
:100DC200B600B60BE22EB70BE22E6430F000003014
:100DD200F100831203134608F3004508F2000A12D9
:100DE2008A1123220A128A117008303E83120313D9
:100DF200B6003608BC000A30F0000030F1004608A8
:100E0200F3004508F2000A128A1123220A128A11FB
:100E12007008303E83120313B6003608BD000A3054
:100E2200F0000030F1004608F3004508F2000A1213
:100E32008A11D8210A128A117008303E83120313D4
:100E4200B6003608BE000D30B6003608F400023097
:100E52000A128A118E210A128A113C30F9000030DE
:100E6200FA000A128A114D210A128A11BC2F460871
:100E7200803AFF0080307F02031D412F0F30450270
:100E82000318D62F831203134508013EC5004608F6
:100E92000318013E003E612F4608803AFF00803071
:100EA2007F02031D562F0B304502031CD62F8312DF
:100EB20003134508FF3EC50046080318013EFF3EE6
:100EC200C600D62F4608C8004508C700C201C20A9C
:100ED2000A128A11EF200A128A11053083120313B3
:100EE200B6003608F40001300A128A118E210A1265
:100EF2008A115C30F9008030FA000A128A114D2101
:100F02000A128A11103083120313B8003930B70065
:100F12000D30B600B60B8B2FB70B8B2FB80B8B2F68
:100F220077300A128A11E5200A128A1102308312DE
:100F32000313B8000430B700B930B600B60B9F2FC8
:100F4200B70B9F2FB80B9F2FA62F3C300A128A1186
:100F52002E210A128A11023083120313B8000430C0
:100F6200B700B930B600B60BB42FB70BB42FB80B1D
:100F7200B42FBB2FD62F043083120313B8000C30CA
:100F8200B7003330B600B60BC42FB70BC42FB80B63
:100F9200C42F831203138619382F061A4D2F861A6F
:100FA200632F061FBC2FC201C20A8312031342031E
:100FB200031DDC2EC0014203031DE12FC201412D9E
:100FC2004103031D412DC101F52C0A128A11E120B2
:100FD2000A128A11C7000A128A11E2200A128A1121
:100FE200C8000A128A11E3200A128A11C9000A12E1
:0E0FF2008A11E420CA0083010A128A11D72C4A
:02400E00723FFF
:00000001FF
